{
  "address": "0x8Ad6c2459B7356BfCdC635fC73AE1d86fdb92fD5",
  "abi": [
    {
      "inputs": [
        {
          "internalType": "contract SortitionPool",
          "name": "_sortitionPool",
          "type": "address"
        }
      ],
      "stateMutability": "nonpayable",
      "type": "constructor"
    },
    {
      "inputs": [],
      "name": "activeThreshold",
      "outputs": [
        {
          "internalType": "uint256",
          "name": "",
          "type": "uint256"
        }
      ],
      "stateMutability": "view",
      "type": "function"
    },
    {
      "inputs": [],
      "name": "groupSize",
      "outputs": [
        {
          "internalType": "uint256",
          "name": "",
          "type": "uint256"
        }
      ],
      "stateMutability": "view",
      "type": "function"
    },
    {
      "inputs": [],
      "name": "groupThreshold",
      "outputs": [
        {
          "internalType": "uint256",
          "name": "",
          "type": "uint256"
        }
      ],
      "stateMutability": "view",
      "type": "function"
    },
    {
      "inputs": [],
      "name": "publicKeyByteSize",
      "outputs": [
        {
          "internalType": "uint256",
          "name": "",
          "type": "uint256"
        }
      ],
      "stateMutability": "view",
      "type": "function"
    },
    {
      "inputs": [],
      "name": "signatureByteSize",
      "outputs": [
        {
          "internalType": "uint256",
          "name": "",
          "type": "uint256"
        }
      ],
      "stateMutability": "view",
      "type": "function"
    },
    {
      "inputs": [],
      "name": "sortitionPool",
      "outputs": [
        {
          "internalType": "contract SortitionPool",
          "name": "",
          "type": "address"
        }
      ],
      "stateMutability": "view",
      "type": "function"
    },
    {
      "inputs": [
        {
          "components": [
            {
              "internalType": "uint256",
              "name": "submitterMemberIndex",
              "type": "uint256"
            },
            {
              "internalType": "bytes",
              "name": "groupPubKey",
              "type": "bytes"
            },
            {
              "internalType": "uint8[]",
              "name": "misbehavedMembersIndices",
              "type": "uint8[]"
            },
            {
              "internalType": "bytes",
              "name": "signatures",
              "type": "bytes"
            },
            {
              "internalType": "uint256[]",
              "name": "signingMembersIndices",
              "type": "uint256[]"
            },
            {
              "internalType": "uint32[]",
              "name": "members",
              "type": "uint32[]"
            },
            {
              "internalType": "bytes32",
              "name": "membersHash",
              "type": "bytes32"
            }
          ],
          "internalType": "struct EcdsaDkg.Result",
          "name": "result",
          "type": "tuple"
        },
        {
          "internalType": "uint256",
          "name": "seed",
          "type": "uint256"
        },
        {
          "internalType": "uint256",
          "name": "startBlock",
          "type": "uint256"
        }
      ],
      "name": "validate",
      "outputs": [
        {
          "internalType": "bool",
          "name": "isValid",
          "type": "bool"
        },
        {
          "internalType": "string",
          "name": "errorMsg",
          "type": "string"
        }
      ],
      "stateMutability": "view",
      "type": "function"
    },
    {
      "inputs": [
        {
          "components": [
            {
              "internalType": "uint256",
              "name": "submitterMemberIndex",
              "type": "uint256"
            },
            {
              "internalType": "bytes",
              "name": "groupPubKey",
              "type": "bytes"
            },
            {
              "internalType": "uint8[]",
              "name": "misbehavedMembersIndices",
              "type": "uint8[]"
            },
            {
              "internalType": "bytes",
              "name": "signatures",
              "type": "bytes"
            },
            {
              "internalType": "uint256[]",
              "name": "signingMembersIndices",
              "type": "uint256[]"
            },
            {
              "internalType": "uint32[]",
              "name": "members",
              "type": "uint32[]"
            },
            {
              "internalType": "bytes32",
              "name": "membersHash",
              "type": "bytes32"
            }
          ],
          "internalType": "struct EcdsaDkg.Result",
          "name": "result",
          "type": "tuple"
        }
      ],
      "name": "validateFields",
      "outputs": [
        {
          "internalType": "bool",
          "name": "isValid",
          "type": "bool"
        },
        {
          "internalType": "string",
          "name": "errorMsg",
          "type": "string"
        }
      ],
      "stateMutability": "pure",
      "type": "function"
    },
    {
      "inputs": [
        {
          "components": [
            {
              "internalType": "uint256",
              "name": "submitterMemberIndex",
              "type": "uint256"
            },
            {
              "internalType": "bytes",
              "name": "groupPubKey",
              "type": "bytes"
            },
            {
              "internalType": "uint8[]",
              "name": "misbehavedMembersIndices",
              "type": "uint8[]"
            },
            {
              "internalType": "bytes",
              "name": "signatures",
              "type": "bytes"
            },
            {
              "internalType": "uint256[]",
              "name": "signingMembersIndices",
              "type": "uint256[]"
            },
            {
              "internalType": "uint32[]",
              "name": "members",
              "type": "uint32[]"
            },
            {
              "internalType": "bytes32",
              "name": "membersHash",
              "type": "bytes32"
            }
          ],
          "internalType": "struct EcdsaDkg.Result",
          "name": "result",
          "type": "tuple"
        },
        {
          "internalType": "uint256",
          "name": "seed",
          "type": "uint256"
        }
      ],
      "name": "validateGroupMembers",
      "outputs": [
        {
          "internalType": "bool",
          "name": "",
          "type": "bool"
        }
      ],
      "stateMutability": "view",
      "type": "function"
    },
    {
      "inputs": [
        {
          "components": [
            {
              "internalType": "uint256",
              "name": "submitterMemberIndex",
              "type": "uint256"
            },
            {
              "internalType": "bytes",
              "name": "groupPubKey",
              "type": "bytes"
            },
            {
              "internalType": "uint8[]",
              "name": "misbehavedMembersIndices",
              "type": "uint8[]"
            },
            {
              "internalType": "bytes",
              "name": "signatures",
              "type": "bytes"
            },
            {
              "internalType": "uint256[]",
              "name": "signingMembersIndices",
              "type": "uint256[]"
            },
            {
              "internalType": "uint32[]",
              "name": "members",
              "type": "uint32[]"
            },
            {
              "internalType": "bytes32",
              "name": "membersHash",
              "type": "bytes32"
            }
          ],
          "internalType": "struct EcdsaDkg.Result",
          "name": "result",
          "type": "tuple"
        }
      ],
      "name": "validateMembersHash",
      "outputs": [
        {
          "internalType": "bool",
          "name": "",
          "type": "bool"
        }
      ],
      "stateMutability": "pure",
      "type": "function"
    },
    {
      "inputs": [
        {
          "components": [
            {
              "internalType": "uint256",
              "name": "submitterMemberIndex",
              "type": "uint256"
            },
            {
              "internalType": "bytes",
              "name": "groupPubKey",
              "type": "bytes"
            },
            {
              "internalType": "uint8[]",
              "name": "misbehavedMembersIndices",
              "type": "uint8[]"
            },
            {
              "internalType": "bytes",
              "name": "signatures",
              "type": "bytes"
            },
            {
              "internalType": "uint256[]",
              "name": "signingMembersIndices",
              "type": "uint256[]"
            },
            {
              "internalType": "uint32[]",
              "name": "members",
              "type": "uint32[]"
            },
            {
              "internalType": "bytes32",
              "name": "membersHash",
              "type": "bytes32"
            }
          ],
          "internalType": "struct EcdsaDkg.Result",
          "name": "result",
          "type": "tuple"
        },
        {
          "internalType": "uint256",
          "name": "startBlock",
          "type": "uint256"
        }
      ],
      "name": "validateSignatures",
      "outputs": [
        {
          "internalType": "bool",
          "name": "",
          "type": "bool"
        }
      ],
      "stateMutability": "view",
      "type": "function"
    }
  ],
  "transactionHash": "0x51f2577c8566d0810f19eff555bf09d3df5f5634c95dea8302c6a5708f2ddc6b",
  "args": [
    "0xeE7F56F1C9c4a675114E1C5d385b1C93F4ad8C05"
  ],
  "numDeployments": 1,
  "solcInputHash": "0dacca60cea08d363bb5d01dd65b6c39",
  "bytecode": "0x60a060405234801561001057600080fd5b5060405161185438038061185483398101604081905261002f91610040565b6001600160a01b0316608052610070565b60006020828403121561005257600080fd5b81516001600160a01b038116811461006957600080fd5b9392505050565b6080516117bb6100996000396000818161013d015281816106dd0152610cb301526117bb6000f3fe608060405234801561001057600080fd5b50600436106100a95760003560e01c806389ef44b01161007157806389ef44b0146100fa5780639617c2a814610102578063b2d44fce14610125578063b54a237414610138578063e7667aba14610177578063e7d10d9b1461018a57600080fd5b806305f8ae15146100ae578063281efe71146100c95780632c5c72df146100d157806363b635ea146100c95780636dcc64f8146100f2575b600080fd5b6100b6604081565b6040519081526020015b60405180910390f35b6100b6600381565b6100e46100df366004611169565b61019d565b6040516100c09291906111a6565b6100b6600281565b6100b6604181565b6101156101103660046111fe565b6106a7565b60405190151581526020016100c0565b610115610133366004611169565b6107f6565b61015f7f000000000000000000000000000000000000000000000000000000000000000081565b6040516001600160a01b0390911681526020016100c0565b6100e4610185366004611243565b610a03565b6101156101983660046111fe565b610b20565b6000606060406101b06020850185611291565b9050146101f557505060408051808201909152601a81527f4d616c666f726d65642067726f7570207075626c6963206b65790000000000006020820152600092909150565b36600061020560408601866112d8565b909250905060036102168282611338565b101561024257600060405180606001604052806027815260200161173b60279139935093505050915091565b600181111561038b576001828260008181106102605761026061134b565b90506020020160208101906102759190611377565b60ff1610806102b757506003828261028e600182611338565b81811061029d5761029d61134b565b90506020020160208101906102b29190611377565b60ff16115b156102e257600060405180606001604052806024815260200161176260249139935093505050915091565b60015b81811015610389578282828181106102ff576102ff61134b565b90506020020160208101906103149190611377565b60ff168383610324600185611338565b8181106103335761033361134b565b90506020020160208101906103489190611377565b60ff16106103775760006040518060600160405280602481526020016117626024913994509450505050915091565b8061038181611399565b9150506102e5565b505b6000604161039c6060880188611291565b6103a79291506113c8565b90506103b66060870187611291565b90506000036103fc57600060405180604001604052806016815260200175139bc81cda59db985d1d5c995cc81c1c9bdd9a59195960521b81525094509450505050915091565b604161040b6060880188611291565b6104169291506113dc565b1561045f5760006040518060400160405280601a81526020017f4d616c666f726d6564207369676e61747572657320617272617900000000000081525094509450505050915091565b36600061046f60808901896112d8565b90925090508281146104c15760006040518060400160405280601b81526020017f556e6578706563746564207369676e61747572657320636f756e740000000000815250965096505050505050915091565b600283101561050557600060405180604001604052806012815260200171546f6f20666577207369676e61747572657360701b815250965096505050505050915091565b600383111561054a57600060405180604001604052806013815260200172546f6f206d616e79207369676e61747572657360681b815250965096505050505050915091565b60018282600081811061055f5761055f61134b565b90506020020135108061059457506003828261057c600182611338565b81811061058b5761058b61134b565b90506020020135115b156105df5760006040518060400160405280602081526020017f436f72727570746564207369676e696e67206d656d62657220696e6469636573815250965096505050505050915091565b60015b81811015610686578282828181106105fc576105fc61134b565b9050602002013583836001846106129190611338565b8181106106215761062161134b565b90506020020135106106745760006040518060400160405280602081526020017f436f72727570746564207369676e696e67206d656d62657220696e646963657381525097509750505050505050915091565b8061067e81611399565b9150506105e2565b50600160405180602001604052806000815250965096505050505050915091565b600036816106b860a08601866112d8565b604051636c2530b960e01b8152600360048201526024810187905291935091506000907f00000000000000000000000000000000000000000000000000000000000000006001600160a01b031690636c2530b990604401600060405180830381865afa15801561072c573d6000803e3d6000fd5b505050506040513d6000823e601f3d908101601f19168201604052610754919081019061146d565b8051909150821461076b57600093505050506107f0565b60005b828110156107e7578181815181106107885761078861134b565b602002602001015163ffffffff168484838181106107a8576107a861134b565b90506020020160208101906107bd919061150c565b63ffffffff16146107d55760009450505050506107f0565b806107df81611399565b91505061076e565b50600193505050505b92915050565b60008061080660408401846112d8565b905011156109c257600061081d60408401846112d8565b905061082c60a08501856112d8565b610837929150611338565b67ffffffffffffffff81111561084f5761084f6113f0565b604051908082528060200260200182016040528015610878578160200160208202803683370190505b50905060008060005b61088e60a08701876112d8565b905081101561098a5760016108a660408801886112d8565b858181106108b6576108b661134b565b90506020020160208101906108cb9190611377565b6108d59190611529565b60ff168114610949576108eb60a08701876112d8565b828181106108fb576108fb61134b565b9050602002016020810190610910919061150c565b8483815181106109225761092261134b565b63ffffffff909216602092830291909101909101528161094181611399565b925050610978565b600161095860408801886112d8565b610963929150611338565b831015610978578261097481611399565b9350505b8061098281611399565b915050610881565b508460c00135836040516020016109a19190611542565b60405160208183030381529060405280519060200120149350505050919050565b60c08201356109d460a08401846112d8565b6040516020016109e592919061158c565b60405160208183030381529060405280519060200120149050919050565b60006060600080610a138761019d565b9150915081610a2957600093509150610b189050565b610a338786610b20565b610a6f57600060405180604001604052806012815260200171496e76616c6964207369676e61747572657360701b815250935093505050610b18565b610a7987876106a7565b610ab857600060405180604001604052806015815260200174496e76616c69642067726f7570206d656d6265727360581b815250935093505050610b18565b610ac1876107f6565b610aff57600060405180604001604052806014815260200173092dcecc2d8d2c840dacadac4cae4e640d0c2e6d60631b815250935093505050610b18565b6001604051806020016040528060008152509350935050505b935093915050565b600080610ba046610b346020870187611291565b610b4160408901896112d8565b88604051602001610b57969594939291906115d7565b604051602081830303815290604052805190602001207f19457468657265756d205369676e6564204d6573736167653a0a3332000000006000908152601c91909152603c902090565b9050366000610bb260808701876112d8565b909250905060008167ffffffffffffffff811115610bd257610bd26113f0565b604051908082528060200260200182016040528015610bfb578160200160208202803683370190505b50905060005b82811015610c9857610c1660a08901896112d8565b6001868685818110610c2a57610c2a61134b565b90506020020135610c3b9190611338565b818110610c4a57610c4a61134b565b9050602002016020810190610c5f919061150c565b828281518110610c7157610c7161134b565b63ffffffff9092166020928302919091019091015280610c9081611399565b915050610c01565b50604051637bfcd47d60e11b81526000906001600160a01b037f0000000000000000000000000000000000000000000000000000000000000000169063f7f9a8fa90610ce8908590600401611542565b600060405180830381865afa158015610d05573d6000803e3d6000fd5b505050506040513d6000823e601f3d908101601f19168201604052610d2d919081019061165e565b9050606060006041610d418b84018c611291565b610d4c9291506113c8565b905060005b81811015610e1b57610db4610d678260416116fa565b6041610d7660608f018f611291565b8080601f016020809104026020016040519081016040528093929190818152602001838380828437600092019190915250929493925050610e2c9050565b92506000610dc28985610ed7565b9050806001600160a01b0316858381518110610de057610de061134b565b60200260200101516001600160a01b031614610e0857600099505050505050505050506107f0565b5080610e1381611399565b915050610d51565b5060019a9950505050505050505050565b60606000610e3a8385611711565b90508381118015610e4c575080855110155b610e935760405162461bcd60e51b8152602060048201526013602482015272536c696365206f7574206f6620626f756e647360681b60448201526064015b60405180910390fd5b604051915082604083010160405282825283850182038460208701018481015b80821015610ecc57815183830152602082019150610eb3565b505050509392505050565b6000806000610ee68585610efb565b91509150610ef381610f40565b509392505050565b6000808251604103610f315760208301516040840151606085015160001a610f258782858561108d565b94509450505050610f39565b506000905060025b9250929050565b6000816004811115610f5457610f54611724565b03610f5c5750565b6001816004811115610f7057610f70611724565b03610fbd5760405162461bcd60e51b815260206004820152601860248201527f45434453413a20696e76616c6964207369676e617475726500000000000000006044820152606401610e8a565b6002816004811115610fd157610fd1611724565b0361101e5760405162461bcd60e51b815260206004820152601f60248201527f45434453413a20696e76616c6964207369676e6174757265206c656e677468006044820152606401610e8a565b600381600481111561103257611032611724565b0361108a5760405162461bcd60e51b815260206004820152602260248201527f45434453413a20696e76616c6964207369676e6174757265202773272076616c604482015261756560f01b6064820152608401610e8a565b50565b6000807f7fffffffffffffffffffffffffffffff5d576e7357a4501ddfe92f46681b20a08311156110c45750600090506003611148565b6040805160008082526020820180845289905260ff881692820192909252606081018690526080810185905260019060a0016020604051602081039080840390855afa158015611118573d6000803e3d6000fd5b5050604051601f1901519150506001600160a01b03811661114157600060019250925050611148565b9150600090505b94509492505050565b600060e0828403121561116357600080fd5b50919050565b60006020828403121561117b57600080fd5b813567ffffffffffffffff81111561119257600080fd5b61119e84828501611151565b949350505050565b821515815260006020604081840152835180604085015260005b818110156111dc578581018301518582016060015282016111c0565b506000606082860101526060601f19601f830116850101925050509392505050565b6000806040838503121561121157600080fd5b823567ffffffffffffffff81111561122857600080fd5b61123485828601611151565b95602094909401359450505050565b60008060006060848603121561125857600080fd5b833567ffffffffffffffff81111561126f57600080fd5b61127b86828701611151565b9660208601359650604090950135949350505050565b6000808335601e198436030181126112a857600080fd5b83018035915067ffffffffffffffff8211156112c357600080fd5b602001915036819003821315610f3957600080fd5b6000808335601e198436030181126112ef57600080fd5b83018035915067ffffffffffffffff82111561130a57600080fd5b6020019150600581901b3603821315610f3957600080fd5b634e487b7160e01b600052601160045260246000fd5b818103818111156107f0576107f0611322565b634e487b7160e01b600052603260045260246000fd5b803560ff8116811461137257600080fd5b919050565b60006020828403121561138957600080fd5b61139282611361565b9392505050565b6000600182016113ab576113ab611322565b5060010190565b634e487b7160e01b600052601260045260246000fd5b6000826113d7576113d76113b2565b500490565b6000826113eb576113eb6113b2565b500690565b634e487b7160e01b600052604160045260246000fd5b604051601f8201601f1916810167ffffffffffffffff8111828210171561142f5761142f6113f0565b604052919050565b600067ffffffffffffffff821115611451576114516113f0565b5060051b60200190565b63ffffffff8116811461108a57600080fd5b6000602080838503121561148057600080fd5b825167ffffffffffffffff81111561149757600080fd5b8301601f810185136114a857600080fd5b80516114bb6114b682611437565b611406565b81815260059190911b820183019083810190878311156114da57600080fd5b928401925b828410156115015783516114f28161145b565b825292840192908401906114df565b979650505050505050565b60006020828403121561151e57600080fd5b81356113928161145b565b60ff82811682821603908111156107f0576107f0611322565b6020808252825182820181905260009190848201906040850190845b8181101561158057835163ffffffff168352928401929184019160010161155e565b50909695505050505050565b60208082528181018390526000908460408401835b868110156115cc5782356115b48161145b565b63ffffffff16825291830191908301906001016115a1565b509695505050505050565b86815260006020608081840152866080840152868860a0850137600060a08885018101829052601f19601f8a011685018581038201604087015290810187905287919060c0015b878210156116465760ff61163184611361565b1681529183019160019190910190830161161e565b80945050505050826060830152979650505050505050565b6000602080838503121561167157600080fd5b825167ffffffffffffffff81111561168857600080fd5b8301601f8101851361169957600080fd5b80516116a76114b682611437565b81815260059190911b820183019083810190878311156116c657600080fd5b928401925b828410156115015783516001600160a01b03811681146116eb5760008081fd5b825292840192908401906116cb565b80820281158282048414176107f0576107f0611322565b808201808211156107f0576107f0611322565b634e487b7160e01b600052602160045260246000fdfe546f6f206d616e79206d656d62657273206d69736265686176696e6720647572696e6720444b47436f72727570746564206d697362656861766564206d656d6265727320696e6469636573a26469706673582212206ecba8cd8e256fd3ff9bf8baa8d26b89aa580f66d9cfc47b9b51a8cc56b225d264736f6c63430008110033",
  "devdoc": {
    "kind": "dev",
    "methods": {
      "validate((uint256,bytes,uint8[],bytes,uint256[],uint32[],bytes32),uint256,uint256)": {
        "params": {
          "seed": "seed used to start the DKG and select group members",
          "startBlock": "DKG start block"
        },
        "returns": {
          "errorMsg": "validation error message; empty for a valid result",
          "isValid": "true if the result is valid, false otherwise"
        }
      },
      "validateFields((uint256,bytes,uint8[],bytes,uint256[],uint32[],bytes32))": {
        "returns": {
          "errorMsg": "validation error message; empty for a valid result",
          "isValid": "true if the result is valid, false otherwise"
        }
      },
      "validateGroupMembers((uint256,bytes,uint8[],bytes,uint256[],uint32[],bytes32),uint256)": {
        "params": {
          "seed": "seed used to start the DKG and select group members"
        },
        "returns": {
          "_0": "true if group members matches; false otherwise"
        }
      },
      "validateMembersHash((uint256,bytes,uint8[],bytes,uint256[],uint32[],bytes32))": {
        "params": {
          "result": "DKG result"
        },
        "returns": {
          "_0": "true if calculated result's group members hash matches with the one that is challenged."
        }
      },
      "validateSignatures((uint256,bytes,uint8[],bytes,uint256[],uint32[],bytes32),uint256)": {
        "params": {
          "startBlock": "DKG start block"
        },
        "returns": {
          "_0": "true if group members matches; false otherwise"
        }
      }
    },
    "stateVariables": {
      "activeThreshold": {
        "details": "The minimum number of active and properly behaving group members      during the DKG needed to accept the result. This number is higher      than `groupThreshold` to keep a safety margin for members becoming      inactive after DKG so that the group can still produce signature."
      },
      "groupSize": {
        "details": "Size of a group in DKG."
      },
      "groupThreshold": {
        "details": "The minimum number of group members needed to interact according to      the protocol to produce a signature. The adversary can not learn      anything about the key as long as it does not break into      groupThreshold+1 of members."
      },
      "publicKeyByteSize": {
        "details": "Size in bytes of a public key produced by group members during the the DKG. The length assumes uncompressed ECDSA public key."
      },
      "signatureByteSize": {
        "details": "Size in bytes of a single signature produced by operator supporting      DKG result."
      }
    },
    "title": "DKG result validator",
    "version": 1
  },
  "userdoc": {
    "kind": "user",
    "methods": {
      "validate((uint256,bytes,uint8[],bytes,uint256[],uint32[],bytes32),uint256,uint256)": {
        "notice": "Performs a full validation of DKG result, including checking the         format of fields in the result, declared selected group members,         and signatures of operators supporting the result."
      },
      "validateFields((uint256,bytes,uint8[],bytes,uint256[],uint32[],bytes32))": {
        "notice": "Performs a static validation of DKG result fields: lengths,         ranges, and order of arrays."
      },
      "validateGroupMembers((uint256,bytes,uint8[],bytes,uint256[],uint32[],bytes32),uint256)": {
        "notice": "Performs validation of group members as declared in DKG         result against group members selected by the sortition pool."
      },
      "validateMembersHash((uint256,bytes,uint8[],bytes,uint256[],uint32[],bytes32))": {
        "notice": "Performs validation of hashed group members that actively took         part in DKG."
      },
      "validateSignatures((uint256,bytes,uint8[],bytes,uint256[],uint32[],bytes32),uint256)": {
        "notice": "Performs validation of signatures supplied in DKG result.         Note that this function does not check if addresses which         supplied signatures supporting the result are the ones selected         to the group by sortition pool. This function should be used         together with `validateGroupMembers`."
      }
    },
    "notice": "EcdsaDkgValidator allows performing a full validation of DKG result,         including checking the format of fields in the result, declared         selected group members, and signatures of operators supporting the         result. The operator submitting the result should perform the         validation using a free contract call before submitting the result         to ensure their result is valid and can not be challenged. All other         network operators should perform validation of the submitted result         using a free contract call and challenge the result if the         validation fails.",
    "version": 1
  },
  "storageLayout": {
    "storage": [],
    "types": null
  }
}