{
  "address": "0x02E00D0bCdf9c5F2194208891b83C8881446410E",
  "abi": [
    {
      "inputs": [],
      "stateMutability": "nonpayable",
      "type": "constructor"
    },
    {
      "anonymous": false,
      "inputs": [
        {
          "indexed": true,
          "internalType": "address",
          "name": "owner",
          "type": "address"
        },
        {
          "indexed": true,
          "internalType": "address",
          "name": "spender",
          "type": "address"
        },
        {
          "indexed": false,
          "internalType": "uint256",
          "name": "value",
          "type": "uint256"
        }
      ],
      "name": "Approval",
      "type": "event"
    },
    {
      "anonymous": false,
      "inputs": [
        {
          "indexed": true,
          "internalType": "address",
          "name": "previousOwner",
          "type": "address"
        },
        {
          "indexed": true,
          "internalType": "address",
          "name": "newOwner",
          "type": "address"
        }
      ],
      "name": "OwnershipTransferred",
      "type": "event"
    },
    {
      "anonymous": false,
      "inputs": [
        {
          "indexed": true,
          "internalType": "address",
          "name": "from",
          "type": "address"
        },
        {
          "indexed": true,
          "internalType": "address",
          "name": "to",
          "type": "address"
        },
        {
          "indexed": false,
          "internalType": "uint256",
          "name": "value",
          "type": "uint256"
        }
      ],
      "name": "Transfer",
      "type": "event"
    },
    {
      "inputs": [],
      "name": "DOMAIN_SEPARATOR",
      "outputs": [
        {
          "internalType": "bytes32",
          "name": "",
          "type": "bytes32"
        }
      ],
      "stateMutability": "view",
      "type": "function"
    },
    {
      "inputs": [],
      "name": "NAME",
      "outputs": [
        {
          "internalType": "string",
          "name": "",
          "type": "string"
        }
      ],
      "stateMutability": "view",
      "type": "function"
    },
    {
      "inputs": [],
      "name": "PERMIT_TYPEHASH",
      "outputs": [
        {
          "internalType": "bytes32",
          "name": "",
          "type": "bytes32"
        }
      ],
      "stateMutability": "view",
      "type": "function"
    },
    {
      "inputs": [],
      "name": "SYMBOL",
      "outputs": [
        {
          "internalType": "string",
          "name": "",
          "type": "string"
        }
      ],
      "stateMutability": "view",
      "type": "function"
    },
    {
      "inputs": [
        {
          "internalType": "address",
          "name": "",
          "type": "address"
        },
        {
          "internalType": "address",
          "name": "",
          "type": "address"
        }
      ],
      "name": "allowance",
      "outputs": [
        {
          "internalType": "uint256",
          "name": "",
          "type": "uint256"
        }
      ],
      "stateMutability": "view",
      "type": "function"
    },
    {
      "inputs": [
        {
          "internalType": "address",
          "name": "spender",
          "type": "address"
        },
        {
          "internalType": "uint256",
          "name": "amount",
          "type": "uint256"
        }
      ],
      "name": "approve",
      "outputs": [
        {
          "internalType": "bool",
          "name": "",
          "type": "bool"
        }
      ],
      "stateMutability": "nonpayable",
      "type": "function"
    },
    {
      "inputs": [
        {
          "internalType": "address",
          "name": "spender",
          "type": "address"
        },
        {
          "internalType": "uint256",
          "name": "amount",
          "type": "uint256"
        },
        {
          "internalType": "bytes",
          "name": "extraData",
          "type": "bytes"
        }
      ],
      "name": "approveAndCall",
      "outputs": [
        {
          "internalType": "bool",
          "name": "",
          "type": "bool"
        }
      ],
      "stateMutability": "nonpayable",
      "type": "function"
    },
    {
      "inputs": [
        {
          "internalType": "address",
          "name": "",
          "type": "address"
        }
      ],
      "name": "balanceOf",
      "outputs": [
        {
          "internalType": "uint256",
          "name": "",
          "type": "uint256"
        }
      ],
      "stateMutability": "view",
      "type": "function"
    },
    {
      "inputs": [
        {
          "internalType": "uint256",
          "name": "amount",
          "type": "uint256"
        }
      ],
      "name": "burn",
      "outputs": [],
      "stateMutability": "nonpayable",
      "type": "function"
    },
    {
      "inputs": [
        {
          "internalType": "address",
          "name": "account",
          "type": "address"
        },
        {
          "internalType": "uint256",
          "name": "amount",
          "type": "uint256"
        }
      ],
      "name": "burnFrom",
      "outputs": [],
      "stateMutability": "nonpayable",
      "type": "function"
    },
    {
      "inputs": [],
      "name": "cachedChainId",
      "outputs": [
        {
          "internalType": "uint256",
          "name": "",
          "type": "uint256"
        }
      ],
      "stateMutability": "view",
      "type": "function"
    },
    {
      "inputs": [],
      "name": "cachedDomainSeparator",
      "outputs": [
        {
          "internalType": "bytes32",
          "name": "",
          "type": "bytes32"
        }
      ],
      "stateMutability": "view",
      "type": "function"
    },
    {
      "inputs": [],
      "name": "decimals",
      "outputs": [
        {
          "internalType": "uint8",
          "name": "",
          "type": "uint8"
        }
      ],
      "stateMutability": "view",
      "type": "function"
    },
    {
      "inputs": [
        {
          "internalType": "address",
          "name": "recipient",
          "type": "address"
        },
        {
          "internalType": "uint256",
          "name": "amount",
          "type": "uint256"
        }
      ],
      "name": "mint",
      "outputs": [],
      "stateMutability": "nonpayable",
      "type": "function"
    },
    {
      "inputs": [],
      "name": "name",
      "outputs": [
        {
          "internalType": "string",
          "name": "",
          "type": "string"
        }
      ],
      "stateMutability": "view",
      "type": "function"
    },
    {
      "inputs": [
        {
          "internalType": "address",
          "name": "",
          "type": "address"
        }
      ],
      "name": "nonce",
      "outputs": [
        {
          "internalType": "uint256",
          "name": "",
          "type": "uint256"
        }
      ],
      "stateMutability": "view",
      "type": "function"
    },
    {
      "inputs": [],
      "name": "owner",
      "outputs": [
        {
          "internalType": "address",
          "name": "",
          "type": "address"
        }
      ],
      "stateMutability": "view",
      "type": "function"
    },
    {
      "inputs": [
        {
          "internalType": "address",
          "name": "owner",
          "type": "address"
        },
        {
          "internalType": "address",
          "name": "spender",
          "type": "address"
        },
        {
          "internalType": "uint256",
          "name": "amount",
          "type": "uint256"
        },
        {
          "internalType": "uint256",
          "name": "deadline",
          "type": "uint256"
        },
        {
          "internalType": "uint8",
          "name": "v",
          "type": "uint8"
        },
        {
          "internalType": "bytes32",
          "name": "r",
          "type": "bytes32"
        },
        {
          "internalType": "bytes32",
          "name": "s",
          "type": "bytes32"
        }
      ],
      "name": "permit",
      "outputs": [],
      "stateMutability": "nonpayable",
      "type": "function"
    },
    {
      "inputs": [],
      "name": "renounceOwnership",
      "outputs": [],
      "stateMutability": "nonpayable",
      "type": "function"
    },
    {
      "inputs": [],
      "name": "symbol",
      "outputs": [
        {
          "internalType": "string",
          "name": "",
          "type": "string"
        }
      ],
      "stateMutability": "view",
      "type": "function"
    },
    {
      "inputs": [],
      "name": "totalSupply",
      "outputs": [
        {
          "internalType": "uint256",
          "name": "",
          "type": "uint256"
        }
      ],
      "stateMutability": "view",
      "type": "function"
    },
    {
      "inputs": [
        {
          "internalType": "address",
          "name": "recipient",
          "type": "address"
        },
        {
          "internalType": "uint256",
          "name": "amount",
          "type": "uint256"
        }
      ],
      "name": "transfer",
      "outputs": [
        {
          "internalType": "bool",
          "name": "",
          "type": "bool"
        }
      ],
      "stateMutability": "nonpayable",
      "type": "function"
    },
    {
      "inputs": [
        {
          "internalType": "address",
          "name": "spender",
          "type": "address"
        },
        {
          "internalType": "address",
          "name": "recipient",
          "type": "address"
        },
        {
          "internalType": "uint256",
          "name": "amount",
          "type": "uint256"
        }
      ],
      "name": "transferFrom",
      "outputs": [
        {
          "internalType": "bool",
          "name": "",
          "type": "bool"
        }
      ],
      "stateMutability": "nonpayable",
      "type": "function"
    },
    {
      "inputs": [
        {
          "internalType": "address",
          "name": "newOwner",
          "type": "address"
        }
      ],
      "name": "transferOwnership",
      "outputs": [],
      "stateMutability": "nonpayable",
      "type": "function"
    }
  ],
  "transactionHash": "0x4fd8db132d1b5d40b788347c1d4322849f224a9eec7bff59ee0ec8fbceec27f4",
  "args": [],
  "numDeployments": 1,
  "solcInputHash": "e256d73a884dad71f1d6413208b49e98",
  "bytecode": "0x60c06040523480156200001157600080fd5b506040518060400160405280601081526020016f2a32b9ba1022a9219918102a37b5b2b760811b81525060405180604001604052806002815260200161151560f21b815250620000706200006a620000a860201b60201c565b620000ac565b60056200007e838262000252565b5060066200008d828262000252565b50466080526200009c620000fc565b60a052506200039c9050565b3390565b600080546001600160a01b038381166001600160a01b0319831681178455604051919092169283917f8be0079c531659141344cd1fd0a4f28419497f9722a3daafe3b4186f6b6457e09190a35050565b60007f8b73c3c69bb8fe3d512ecc4cf759cc79239f7b179b0ffacaa9a75d522b39400f60056040516200013091906200031e565b60408051918290038220828201825260018352603160f81b6020938401528151928301939093528101919091527fc89efdaa54c0f20c7adf612882df0950f5a951637e0307cdcb4c672f298b8bc660608201524660808201523060a082015260c00160405160208183030381529060405280519060200120905090565b634e487b7160e01b600052604160045260246000fd5b600181811c90821680620001d857607f821691505b602082108103620001f957634e487b7160e01b600052602260045260246000fd5b50919050565b601f8211156200024d57600081815260208120601f850160051c81016020861015620002285750805b601f850160051c820191505b81811015620002495782815560010162000234565b5050505b505050565b81516001600160401b038111156200026e576200026e620001ad565b62000286816200027f8454620001c3565b84620001ff565b602080601f831160018114620002be5760008415620002a55750858301515b600019600386901b1c1916600185901b17855562000249565b600085815260208120601f198616915b82811015620002ef57888601518255948401946001909101908401620002ce565b50858210156200030e5787850151600019600388901b60f8161c191681555b5050505050600190811b01905550565b60008083546200032e81620001c3565b600182811680156200034957600181146200035f5762000390565b60ff198416875282151583028701945062000390565b8760005260208060002060005b85811015620003875781548a8201529084019082016200036c565b50505082870194505b50929695505050505050565b60805160a0516115bf620003d06000396000818161037201526105d90152600081816102c601526105b101526115bf6000f3fe608060405234801561001057600080fd5b50600436106101985760003560e01c8063771da5c5116100e3578063b4f94b2e1161008c578063dd62ed3e11610066578063dd62ed3e146103ba578063f2fde38b146103e5578063f76f8d78146103f857600080fd5b8063b4f94b2e1461036d578063cae9ca5114610394578063d505accf146103a757600080fd5b806395d89b41116100bd57806395d89b4114610316578063a3f4df7e1461031e578063a9059cbb1461035a57600080fd5b8063771da5c5146102c157806379cc6790146102e85780638da5cb5b146102fb57600080fd5b80633644e5151161014557806370a082311161011f57806370a082311461027957806370ae92d214610299578063715018a6146102b957600080fd5b80633644e5151461024957806340c10f191461025157806342966c681461026657600080fd5b806323b872dd1161017657806323b872dd146101f557806330adf81f14610208578063313ce5671461022f57600080fd5b806306fdde031461019d578063095ea7b3146101bb57806318160ddd146101de575b600080fd5b6101a5610434565b6040516101b291906111cf565b60405180910390f35b6101ce6101c93660046111fe565b6104c2565b60405190151581526020016101b2565b6101e760045481565b6040519081526020016101b2565b6101ce610203366004611228565b6104d9565b6101e77f6e71edae12b1b97f4d1f60370fef10105fa2faae0126114a169c64845d6126c981565b610237601281565b60405160ff90911681526020016101b2565b6101e76105ad565b61026461025f3660046111fe565b610608565b005b610264610274366004611264565b6106ef565b6101e761028736600461127d565b60016020526000908152604090205481565b6101e76102a736600461127d565b60036020526000908152604090205481565b6102646106fc565b6101e77f000000000000000000000000000000000000000000000000000000000000000081565b6102646102f63660046111fe565b610710565b6000546040516001600160a01b0390911681526020016101b2565b6101a56107ab565b6101a56040518060400160405280601081526020017f5465737420455243323020546f6b656e0000000000000000000000000000000081525081565b6101ce6103683660046111fe565b6107b8565b6101e77f000000000000000000000000000000000000000000000000000000000000000081565b6101ce6103a23660046112ae565b6107c5565b6102646103b5366004611379565b610866565b6101e76103c83660046113ec565b600260209081526000928352604080842090915290825290205481565b6102646103f336600461127d565b610b76565b6101a56040518060400160405280600281526020017f545400000000000000000000000000000000000000000000000000000000000081525081565b600580546104419061141f565b80601f016020809104026020016040519081016040528092919081815260200182805461046d9061141f565b80156104ba5780601f1061048f576101008083540402835291602001916104ba565b820191906000526020600020905b81548152906001019060200180831161049d57829003601f168201915b505050505081565b60006104cf338484610c03565b5060015b92915050565b6001600160a01b0383166000908152600260209081526040808320338452909152812054600019811461059557828110156105815760405162461bcd60e51b815260206004820152602160248201527f5472616e7366657220616d6f756e74206578636565647320616c6c6f77616e6360448201527f650000000000000000000000000000000000000000000000000000000000000060648201526084015b60405180910390fd5b6105958533610590868561146f565b610c03565b6105a0858585610d11565b60019150505b9392505050565b60007f000000000000000000000000000000000000000000000000000000000000000046036105fb57507f000000000000000000000000000000000000000000000000000000000000000090565b610603610f18565b905090565b610610610fe3565b6001600160a01b0382166106665760405162461bcd60e51b815260206004820152601860248201527f4d696e7420746f20746865207a65726f206164647265737300000000000000006044820152606401610578565b80600460008282546106789190611482565b90915550506001600160a01b038216600090815260016020526040812080548392906106a5908490611482565b90915550506040518181526001600160a01b038316906000907fddf252ad1be2c89b69c2b068fc378daa952ba7f163c4a11628f55a4df523b3ef9060200160405180910390a35050565b6106f9338261103d565b50565b610704610fe3565b61070e6000611121565b565b6001600160a01b0382166000908152600260209081526040808320338452909152902054600019811461079c578181101561078d5760405162461bcd60e51b815260206004820152601d60248201527f4275726e20616d6f756e74206578636565647320616c6c6f77616e63650000006044820152606401610578565b61079c8333610590858561146f565b6107a6838361103d565b505050565b600680546104419061141f565b60006104cf338484610d11565b60006107d184846104c2565b1561085c576040517f8f4ffcb10000000000000000000000000000000000000000000000000000000081526001600160a01b03851690638f4ffcb190610821903390879030908890600401611495565b600060405180830381600087803b15801561083b57600080fd5b505af115801561084f573d6000803e3d6000fd5b50505050600190506105a6565b5060009392505050565b428410156108b65760405162461bcd60e51b815260206004820152601260248201527f5065726d697373696f6e206578706972656400000000000000000000000000006044820152606401610578565b7f7fffffffffffffffffffffffffffffff5d576e7357a4501ddfe92f46681b20a08111156109265760405162461bcd60e51b815260206004820152601b60248201527f496e76616c6964207369676e6174757265202773272076616c756500000000006044820152606401610578565b8260ff16601b148061093b57508260ff16601c145b6109875760405162461bcd60e51b815260206004820152601b60248201527f496e76616c6964207369676e6174757265202776272076616c756500000000006044820152606401610578565b60006109916105ad565b6001600160a01b038916600090815260036020526040812080547f6e71edae12b1b97f4d1f60370fef10105fa2faae0126114a169c64845d6126c9928c928c928c929091906109df836114d1565b909155506040805160208101969096526001600160a01b0394851690860152929091166060840152608083015260a082015260c0810187905260e00160405160208183030381529060405280519060200120604051602001610a739291907f190100000000000000000000000000000000000000000000000000000000000081526002810192909252602282015260420190565b60408051601f198184030181528282528051602091820120600080855291840180845281905260ff88169284019290925260608301869052608083018590529092509060019060a0016020604051602081039080840390855afa158015610ade573d6000803e3d6000fd5b5050604051601f1901519150506001600160a01b03811615801590610b145750886001600160a01b0316816001600160a01b0316145b610b605760405162461bcd60e51b815260206004820152601160248201527f496e76616c6964207369676e61747572650000000000000000000000000000006044820152606401610578565b610b6b898989610c03565b505050505050505050565b610b7e610fe3565b6001600160a01b038116610bfa5760405162461bcd60e51b815260206004820152602660248201527f4f776e61626c653a206e6577206f776e657220697320746865207a65726f206160448201527f64647265737300000000000000000000000000000000000000000000000000006064820152608401610578565b6106f981611121565b6001600160a01b038316610c595760405162461bcd60e51b815260206004820152601d60248201527f417070726f76652066726f6d20746865207a65726f20616464726573730000006044820152606401610578565b6001600160a01b038216610caf5760405162461bcd60e51b815260206004820152601b60248201527f417070726f766520746f20746865207a65726f206164647265737300000000006044820152606401610578565b6001600160a01b0383811660008181526002602090815260408083209487168084529482529182902085905590518481527f8c5be1e5ebec7d5bd14f71427d1e84f3dd0314c0f7b2291e5b200ac8c7c3b92591015b60405180910390a3505050565b6001600160a01b038316610d675760405162461bcd60e51b815260206004820152601e60248201527f5472616e736665722066726f6d20746865207a65726f206164647265737300006044820152606401610578565b6001600160a01b038216610dbd5760405162461bcd60e51b815260206004820152601c60248201527f5472616e7366657220746f20746865207a65726f2061646472657373000000006044820152606401610578565b306001600160a01b03831603610e155760405162461bcd60e51b815260206004820152601d60248201527f5472616e7366657220746f2074686520746f6b656e20616464726573730000006044820152606401610578565b6001600160a01b03831660009081526001602052604090205481811015610e7e5760405162461bcd60e51b815260206004820152601f60248201527f5472616e7366657220616d6f756e7420657863656564732062616c616e6365006044820152606401610578565b610e88828261146f565b6001600160a01b038086166000908152600160205260408082209390935590851681529081208054849290610ebe908490611482565b92505081905550826001600160a01b0316846001600160a01b03167fddf252ad1be2c89b69c2b068fc378daa952ba7f163c4a11628f55a4df523b3ef84604051610f0a91815260200190565b60405180910390a350505050565b60007f8b73c3c69bb8fe3d512ecc4cf759cc79239f7b179b0ffacaa9a75d522b39400f6005604051610f4a91906114ea565b604080519182900382208282018252600183527f31000000000000000000000000000000000000000000000000000000000000006020938401528151928301939093528101919091527fc89efdaa54c0f20c7adf612882df0950f5a951637e0307cdcb4c672f298b8bc660608201524660808201523060a082015260c00160405160208183030381529060405280519060200120905090565b6000546001600160a01b0316331461070e5760405162461bcd60e51b815260206004820181905260248201527f4f776e61626c653a2063616c6c6572206973206e6f7420746865206f776e65726044820152606401610578565b6001600160a01b038216600090815260016020526040902054818110156110a65760405162461bcd60e51b815260206004820152601b60248201527f4275726e20616d6f756e7420657863656564732062616c616e636500000000006044820152606401610578565b6110b0828261146f565b6001600160a01b038416600090815260016020526040812091909155600480548492906110de90849061146f565b90915550506040518281526000906001600160a01b038516907fddf252ad1be2c89b69c2b068fc378daa952ba7f163c4a11628f55a4df523b3ef90602001610d04565b600080546001600160a01b038381167fffffffffffffffffffffffff0000000000000000000000000000000000000000831681178455604051919092169283917f8be0079c531659141344cd1fd0a4f28419497f9722a3daafe3b4186f6b6457e09190a35050565b6000815180845260005b818110156111af57602081850181015186830182015201611193565b506000602082860101526020601f19601f83011685010191505092915050565b6020815260006105a66020830184611189565b80356001600160a01b03811681146111f957600080fd5b919050565b6000806040838503121561121157600080fd5b61121a836111e2565b946020939093013593505050565b60008060006060848603121561123d57600080fd5b611246846111e2565b9250611254602085016111e2565b9150604084013590509250925092565b60006020828403121561127657600080fd5b5035919050565b60006020828403121561128f57600080fd5b6105a6826111e2565b634e487b7160e01b600052604160045260246000fd5b6000806000606084860312156112c357600080fd5b6112cc846111e2565b925060208401359150604084013567ffffffffffffffff808211156112f057600080fd5b818601915086601f83011261130457600080fd5b81358181111561131657611316611298565b604051601f8201601f19908116603f0116810190838211818310171561133e5761133e611298565b8160405282815289602084870101111561135757600080fd5b8260208601602083013760006020848301015280955050505050509250925092565b600080600080600080600060e0888a03121561139457600080fd5b61139d886111e2565b96506113ab602089016111e2565b95506040880135945060608801359350608088013560ff811681146113cf57600080fd5b9699959850939692959460a0840135945060c09093013592915050565b600080604083850312156113ff57600080fd5b611408836111e2565b9150611416602084016111e2565b90509250929050565b600181811c9082168061143357607f821691505b60208210810361145357634e487b7160e01b600052602260045260246000fd5b50919050565b634e487b7160e01b600052601160045260246000fd5b818103818111156104d3576104d3611459565b808201808211156104d3576104d3611459565b60006001600160a01b038087168352856020840152808516604084015250608060608301526114c76080830184611189565b9695505050505050565b6000600182016114e3576114e3611459565b5060010190565b600080835481600182811c91508083168061150657607f831692505b6020808410820361152557634e487b7160e01b86526022600452602486fd5b818015611539576001811461154e5761157b565b60ff198616895284151585028901965061157b565b60008a81526020902060005b868110156115735781548b82015290850190830161155a565b505084890196505b50949897505050505050505056fea26469706673582212203ad4199b89f2dda373b64033cd5123d812c97c07bbb2c7c071d1c4de71a9e82664736f6c63430008110033",
  "devdoc": {
    "kind": "dev",
    "methods": {
      "approve(address,uint256)": {
        "details": "If the `amount` is set to `type(uint256).max` then      `transferFrom` and `burnFrom` will not reduce an allowance.      Beware that changing an allowance with this method brings the risk      that someone may use both the old and the new allowance by      unfortunate transaction ordering. One possible solution to mitigate      this race condition is to first reduce the spender's allowance to 0      and set the desired value afterwards:      https://github.com/ethereum/EIPs/issues/20#issuecomment-263524729",
        "returns": {
          "_0": "True if the operation succeeded."
        }
      },
      "approveAndCall(address,uint256,bytes)": {
        "details": "If the `amount` is set to `type(uint256).max` then      `transferFrom` and `burnFrom` will not reduce an allowance.",
        "returns": {
          "_0": "True if both approval and `receiveApproval` calls succeeded."
        }
      },
      "burn(uint256)": {
        "details": "Requirements:       - the caller must have a balance of at least `amount`."
      },
      "burnFrom(address,uint256)": {
        "details": "Requirements:      - `account` must have a balance of at least `amount`,      - the caller must have allowance for `account`'s tokens of at least        `amount`."
      },
      "mint(address,uint256)": {
        "details": "Requirements:      - `recipient` cannot be the zero address."
      },
      "owner()": {
        "details": "Returns the address of the current owner."
      },
      "permit(address,address,uint256,uint256,uint8,bytes32,bytes32)": {
        "details": "The deadline argument can be set to `type(uint256).max to create         permits that effectively never expire.  If the `amount` is set         to `type(uint256).max` then `transferFrom` and `burnFrom` will         not reduce an allowance."
      },
      "renounceOwnership()": {
        "details": "Leaves the contract without owner. It will not be possible to call `onlyOwner` functions anymore. Can only be called by the current owner. NOTE: Renouncing ownership will leave the contract without an owner, thereby removing any functionality that is only available to the owner."
      },
      "transfer(address,uint256)": {
        "details": "Requirements:       - `recipient` cannot be the zero address,       - the caller must have a balance of at least `amount`.",
        "returns": {
          "_0": "True if the operation succeeded, reverts otherwise."
        }
      },
      "transferFrom(address,address,uint256)": {
        "details": "Requirements:      - `spender` and `recipient` cannot be the zero address,      - `spender` must have a balance of at least `amount`,      - the caller must have allowance for `spender`'s tokens of at least        `amount`.",
        "returns": {
          "_0": "True if the operation succeeded, reverts otherwise."
        }
      },
      "transferOwnership(address)": {
        "details": "Transfers ownership of the contract to a new account (`newOwner`). Can only be called by the current owner."
      }
    },
    "version": 1
  },
  "userdoc": {
    "kind": "user",
    "methods": {
      "DOMAIN_SEPARATOR()": {
        "notice": "Returns hash of EIP712 Domain struct with the token name as         a signing domain and token contract as a verifying contract.         Used to construct EIP2612 signature provided to `permit`         function."
      },
      "PERMIT_TYPEHASH()": {
        "notice": "Returns EIP2612 Permit message hash. Used to construct EIP2612         signature provided to `permit` function."
      },
      "allowance(address,address)": {
        "notice": "The remaining number of tokens that spender will be         allowed to spend on behalf of owner through `transferFrom` and         `burnFrom`. This is zero by default."
      },
      "approve(address,uint256)": {
        "notice": "Sets `amount` as the allowance of `spender` over the caller's         tokens."
      },
      "approveAndCall(address,uint256,bytes)": {
        "notice": "Calls `receiveApproval` function on spender previously approving         the spender to withdraw from the caller multiple times, up to         the `amount` amount. If this function is called again, it         overwrites the current allowance with `amount`. Reverts if the         approval reverted or if `receiveApproval` call on the spender         reverted."
      },
      "balanceOf(address)": {
        "notice": "The amount of tokens owned by the given account."
      },
      "burn(uint256)": {
        "notice": "Destroys `amount` tokens from the caller."
      },
      "burnFrom(address,uint256)": {
        "notice": "Destroys `amount` of tokens from `account` using the allowance         mechanism. `amount` is then deducted from the caller's allowance         unless the allowance was made for `type(uint256).max`."
      },
      "decimals()": {
        "notice": "The decimals places of the token."
      },
      "mint(address,uint256)": {
        "notice": "Creates `amount` tokens and assigns them to `account`,         increasing the total supply."
      },
      "name()": {
        "notice": "The name of the token."
      },
      "nonce(address)": {
        "notice": "Returns the current nonce for EIP2612 permission for the         provided token owner for a replay protection. Used to construct         EIP2612 signature provided to `permit` function."
      },
      "permit(address,address,uint256,uint256,uint8,bytes32,bytes32)": {
        "notice": "EIP2612 approval made with secp256k1 signature.         Users can authorize a transfer of their tokens with a signature         conforming EIP712 standard, rather than an on-chain transaction         from their address. Anyone can submit this signature on the         user's behalf by calling the permit function, paying gas fees,         and possibly performing other actions in the same transaction."
      },
      "symbol()": {
        "notice": "The symbol of the token."
      },
      "totalSupply()": {
        "notice": "The amount of tokens in existence."
      },
      "transfer(address,uint256)": {
        "notice": "Moves `amount` tokens from the caller's account to `recipient`."
      },
      "transferFrom(address,address,uint256)": {
        "notice": "Moves `amount` tokens from `spender` to `recipient` using the         allowance mechanism. `amount` is then deducted from the caller's         allowance unless the allowance was made for `type(uint256).max`."
      }
    },
    "version": 1
  },
  "storageLayout": {
    "storage": [
      {
        "astId": 17669,
        "contract": "contracts/test/TestERC20.sol:TestERC20",
        "label": "_owner",
        "offset": 0,
        "slot": "0",
        "type": "t_address"
      },
      {
        "astId": 23472,
        "contract": "contracts/test/TestERC20.sol:TestERC20",
        "label": "balanceOf",
        "offset": 0,
        "slot": "1",
        "type": "t_mapping(t_address,t_uint256)"
      },
      {
        "astId": 23480,
        "contract": "contracts/test/TestERC20.sol:TestERC20",
        "label": "allowance",
        "offset": 0,
        "slot": "2",
        "type": "t_mapping(t_address,t_mapping(t_address,t_uint256))"
      },
      {
        "astId": 23486,
        "contract": "contracts/test/TestERC20.sol:TestERC20",
        "label": "nonce",
        "offset": 0,
        "slot": "3",
        "type": "t_mapping(t_address,t_uint256)"
      },
      {
        "astId": 23501,
        "contract": "contracts/test/TestERC20.sol:TestERC20",
        "label": "totalSupply",
        "offset": 0,
        "slot": "4",
        "type": "t_uint256"
      },
      {
        "astId": 23505,
        "contract": "contracts/test/TestERC20.sol:TestERC20",
        "label": "name",
        "offset": 0,
        "slot": "5",
        "type": "t_string_storage"
      },
      {
        "astId": 23509,
        "contract": "contracts/test/TestERC20.sol:TestERC20",
        "label": "symbol",
        "offset": 0,
        "slot": "6",
        "type": "t_string_storage"
      }
    ],
    "types": {
      "t_address": {
        "encoding": "inplace",
        "label": "address",
        "numberOfBytes": "20"
      },
      "t_mapping(t_address,t_mapping(t_address,t_uint256))": {
        "encoding": "mapping",
        "key": "t_address",
        "label": "mapping(address => mapping(address => uint256))",
        "numberOfBytes": "32",
        "value": "t_mapping(t_address,t_uint256)"
      },
      "t_mapping(t_address,t_uint256)": {
        "encoding": "mapping",
        "key": "t_address",
        "label": "mapping(address => uint256)",
        "numberOfBytes": "32",
        "value": "t_uint256"
      },
      "t_string_storage": {
        "encoding": "bytes",
        "label": "string",
        "numberOfBytes": "32"
      },
      "t_uint256": {
        "encoding": "inplace",
        "label": "uint256",
        "numberOfBytes": "32"
      }
    }
  }
}